{
  "abi": [
    {
      "anonymous": false,
      "inputs": [
        {
          "indexed": true,
          "internalType": "uint256",
          "name": "id",
          "type": "uint256"
        },
        {
          "indexed": true,
          "internalType": "address",
          "name": "creator",
          "type": "address"
        },
        {
          "indexed": false,
          "internalType": "string",
          "name": "description",
          "type": "string"
        },
        {
          "indexed": false,
          "internalType": "uint256",
          "name": "amount",
          "type": "uint256"
        }
      ],
      "name": "IntentCreated",
      "type": "event"
    },
    {
      "anonymous": false,
      "inputs": [
        {
          "indexed": true,
          "internalType": "uint256",
          "name": "id",
          "type": "uint256"
        },
        {
          "indexed": true,
          "internalType": "address",
          "name": "resolver",
          "type": "address"
        },
        {
          "indexed": false,
          "internalType": "uint256",
          "name": "amount",
          "type": "uint256"
        }
      ],
      "name": "IntentResolved",
      "type": "event"
    },
    {
      "inputs": [
        {
          "internalType": "string",
          "name": "_description",
          "type": "string"
        }
      ],
      "name": "createIntent",
      "outputs": [
        {
          "internalType": "uint256",
          "name": "",
          "type": "uint256"
        }
      ],
      "stateMutability": "payable",
      "type": "function"
    },
    {
      "inputs": [
        {
          "internalType": "uint256",
          "name": "_id",
          "type": "uint256"
        }
      ],
      "name": "getIntent",
      "outputs": [
        {
          "internalType": "uint256",
          "name": "",
          "type": "uint256"
        },
        {
          "internalType": "address",
          "name": "",
          "type": "address"
        },
        {
          "internalType": "string",
          "name": "",
          "type": "string"
        },
        {
          "internalType": "enum EscrowIntentManager.IntentState",
          "name": "",
          "type": "uint8"
        },
        {
          "internalType": "uint256",
          "name": "",
          "type": "uint256"
        }
      ],
      "stateMutability": "view",
      "type": "function"
    },
    {
      "inputs": [
        {
          "internalType": "uint256",
          "name": "",
          "type": "uint256"
        }
      ],
      "name": "intents",
      "outputs": [
        {
          "internalType": "uint256",
          "name": "id",
          "type": "uint256"
        },
        {
          "internalType": "address",
          "name": "creator",
          "type": "address"
        },
        {
          "internalType": "string",
          "name": "description",
          "type": "string"
        },
        {
          "internalType": "enum EscrowIntentManager.IntentState",
          "name": "state",
          "type": "uint8"
        },
        {
          "internalType": "uint256",
          "name": "amount",
          "type": "uint256"
        }
      ],
      "stateMutability": "view",
      "type": "function"
    },
    {
      "inputs": [
        {
          "internalType": "uint256",
          "name": "_id",
          "type": "uint256"
        }
      ],
      "name": "resolveIntent",
      "outputs": [],
      "stateMutability": "nonpayable",
      "type": "function"
    }
  ],
  "bytecode": {
    "object": "0x608060405234801561001057600080fd5b5061097c806100206000396000f3fe60806040526004361061003f5760003560e01c806346a1a0951461004457806371020f861461007e578063906e277b146100a0578063cbfb1927146100c0575b600080fd5b34801561005057600080fd5b5061006461005f366004610614565b6100e1565b604051610075959493929190610690565b60405180910390f35b34801561008a57600080fd5b5061009e610099366004610614565b6101a6565b005b3480156100ac57600080fd5b506100646100bb366004610614565b610324565b6100d36100ce366004610703565b6104bb565b604051908152602001610075565b60006020819052908152604090208054600182015460028301805492936001600160a01b0390921692610113906107b4565b80601f016020809104026020016040519081016040528092919081815260200182805461013f906107b4565b801561018c5780601f106101615761010080835404028352916020019161018c565b820191906000526020600020905b81548152906001019060200180831161016f57829003601f168201915b505050506003830154600490930154919260ff1691905085565b60008181526020819052604090206001015481906001600160a01b031661020c5760405162461bcd60e51b8152602060048201526015602482015274125b9d195b9d08191bd95cc81b9bdd08195e1a5cdd605a1b60448201526064015b60405180910390fd5b816000808281526020819052604090206003015460ff1660018111156102345761023461067a565b146102815760405162461bcd60e51b815260206004820152601a60248201527f496e74656e7420697320616c7265616479207265736f6c7665640000000000006044820152606401610203565b60008381526020819052604080822060048101805460038301805460ff191660011790559084905591519092339182916108fc851502918591818181858888f193505050501580156102d7573d6000803e3d6000fd5b50806001600160a01b0316867fb5c70dfdfecb7cc39b872e9a3360b1e0a9c6a3bf580ee56cd2eb71664ccd85738460405161031491815260200190565b60405180910390a3505050505050565b60008181526020819052604081206001015481906060908290819086906001600160a01b031661038e5760405162461bcd60e51b8152602060048201526015602482015274125b9d195b9d08191bd95cc81b9bdd08195e1a5cdd605a1b6044820152606401610203565b600087815260208181526040808320815160a0810183528154815260018201546001600160a01b03169381019390935260028101805491928401916103d2906107b4565b80601f01602080910402602001604051908101604052809291908181526020018280546103fe906107b4565b801561044b5780601f106104205761010080835404028352916020019161044b565b820191906000526020600020905b81548152906001019060200180831161042e57829003601f168201915b5050509183525050600382015460209091019060ff1660018111156104725761047261067a565b60018111156104835761048361067a565b81526004919091015460209182015281519082015160408301516060840151608090940151929c919b50995091975095509350505050565b60008034116105055760405162461bcd60e51b815260206004820152601660248201527526bab9ba1032b9b1b937bb9039b7b6b29022ba3432b960511b6044820152606401610203565b60018054906000610515836107ee565b90915550506040805160a0810182526001548152336020820152908101839052606081016000815234602091820152600180546000908152808352604090819020845181559284015191830180546001600160a01b0319166001600160a01b039093169290921790915582015160028201906105919082610864565b50606082015160038201805460ff1916600183818111156105b4576105b461067a565b021790555060808201518160040155905050336001600160a01b03166001547f8ea7d25b9dddca0d80c87da913e17833198553a62aaeda4c0ccc997b0c4e1d6f8434604051610604929190610924565b60405180910390a3505060015490565b60006020828403121561062657600080fd5b5035919050565b6000815180845260005b8181101561065357602081850181015186830182015201610637565b81811115610665576000602083870101525b50601f01601f19169290920160200192915050565b634e487b7160e01b600052602160045260246000fd5b8581526001600160a01b038516602082015260a0604082018190526000906106ba9083018661062d565b9050600284106106da57634e487b7160e01b600052602160045260246000fd5b6060820193909352608001529392505050565b634e487b7160e01b600052604160045260246000fd5b60006020828403121561071557600080fd5b813567ffffffffffffffff8082111561072d57600080fd5b818401915084601f83011261074157600080fd5b813581811115610753576107536106ed565b604051601f8201601f19908116603f0116810190838211818310171561077b5761077b6106ed565b8160405282815287602084870101111561079457600080fd5b826020860160208301376000928101602001929092525095945050505050565b600181811c908216806107c857607f821691505b6020821081036107e857634e487b7160e01b600052602260045260246000fd5b50919050565b60006001820161080e57634e487b7160e01b600052601160045260246000fd5b5060010190565b601f82111561085f57600081815260208120601f850160051c8101602086101561083c5750805b601f850160051c820191505b8181101561085b57828155600101610848565b5050505b505050565b815167ffffffffffffffff81111561087e5761087e6106ed565b6108928161088c84546107b4565b84610815565b602080601f8311600181146108c757600084156108af5750858301515b600019600386901b1c1916600185901b17855561085b565b600085815260208120601f198616915b828110156108f6578886015182559484019460019091019084016108d7565b50858210156109145787850151600019600388901b60f8161c191681555b5050505050600190811b01905550565b604081526000610937604083018561062d565b9050826020830152939250505056fea2646970667358221220311c5cb623fc46148da6f6af7648bc6b595b271b3b9948bc64829d7386b7fbed64736f6c634300080f0033",
    "linkReferences": {}
  },
  "methodIdentifiers": {
    "createIntent(string)": "cbfb1927",
    "getIntent(uint256)": "906e277b",
    "intents(uint256)": "46a1a095",
    "resolveIntent(uint256)": "71020f86"
  },
  "id": 0
}